:200000000C94F13B0C94223C0C94223C0C94223C0C94223C0C94223C0C94223C0C94223C22
:200020000C94223C0C94223C0C94223C0C94223C0C94223C0C9478F60C94223C0C94223CC0
:200040000C94223C0C94CC7F0C94223C0C94223C0C94223C0C94223C0C9457800C9455F063
:200060000C94223C0C9473810C949D810C94223C0C94223C0C94223C0C94223C0C94223C3A
:200080000C94223C0C94223C0C94223C0C94223C0C94223C0C94223C0C94223C0C94223C70
:2000A0000C94223C0C94223C0C94223C0C94223C0C94223C0C94223C0C94223C0C94223C50
:2000C0000C94223C0C94223C0C94223C0C94223C0C94223C0C94223C0C94223C0C94223C30
:2000E0000C94223C387950795079507950795079507950795079507950795079507950791C
:20010000507950795079507950795079507950795079FF780979EB78E17893789D780F7872
:20012000F578C378CD7813791D792078FD772779B9785079D778AF78A7785079507950791A
:2001400075787F788978507950795079507950795079FF780979EB78E17893789D780F78A8
:20016000F578C378CD7813791D792078FD772779B9785079D778AF78A778507950795079DA
:2001800075787F78897884F189F18EF198F1A2F11BF2ACF1B4F1BCF1C6F1D0F1DAF1E9F1D7
:2001A000F3F11BF2FDF107F211F23DF240F22FF233F239F277F244F248F24EF252F256F2ED
:2001C0005CF260F264F277F26AF26EF272F2084AD73B3BCE016E84BCBFFDC12F3D6C74318A
:2001E0009ABD56833DDA3D00C77F11BED9E4BB4C3E916BAAAABE000000803F05A84CCDB21F
:20020000D44EB93836A9020C50B9918688083CA6AAAA2ABE000000803F004A616D20636F47
:200220006E74726F6C2064697361626C65643A004A616D20646562756767696E673A00439C
:200240006F6C6420657874727573696F6E20646973616C6C6F77656400436F6C6420657887
:2002600074727573696F6E20616C6C6F776564004175746F726574726163743A005365746E
:20028000204D6963726F7374657070696E670054726967676572696E67207761746368642D
:2002A0006F672E204966206163746976617465642C20746865207072696E746572207769E5
:2002C0006C6C2072657365742E0020746F200053657420766F6C756D65747269632065781F
:2002E00074727573696F6E20666F72206578747275646572200044697361626C6564207622
:200300006F6C756D657472696320657874727573696F6E20666F72206578747275646572FE
:2003200020004D313134200050696E2063616E206E6F7420626520736574206279204D34C1
:20034000322C20697320696E2073656E7369746976652070696E73212000496C6C656761E9
:200360006C20532076616C756520666F72204D34320052656C617469766520706F7369749C
:20038000696F6E696E67004162736F6C75746520706F736974696F6E696E670000013A3953
:2003A0003B25280511042926100B0312130D0C020A1C1B1D0F0C355072696E7465724D6FA0
:2003C00064653A434E43005072696E7465724D6F64653A4C61736572005072696E746572C8
:2003E0004D6F64653A46464600457874722E00436F6E6669673A0052657472616374696F5E
:200400006E20756E646F20737065656400457874726120657874727573696F6E206F6E2035
:20042000756E646F2072657472616374205B6D6D5D0052657472616374696F6E207A2D6CF1
:20044000696674205B6D6D5D0052657472616374696F6E207370656564205B6D6D2F735D07
:200460000052657472616374696F6E206C656E677468205B6D6D5D00456E61626C65207234
:20048000657472616374696F6E20636F6E76657273696F6E205B302F315D004F6E6520681B
:2004A0006561746572207365656D73206465636F75706C65642066726F6D20746865726D05
:2004C0006973746F72202D2064697361626C696E6720616C6C20666F722073616665747965
:2004E0002100486561746572206465636F75706C6564004372656174696F6E206661696CBC
:200500006564004469726563746F727920637265617465640044656C6574696F6E2066614A
:20052000696C65640046696C652064656C6574656400446F6E6520736176696E6720666989
:200540006C652E0057726974696E6720746F2066696C653A20006F70656E206661696C65C8
:20056000642C2046696C653A20004E6F74205344207072696E74696E67005344207072697C
:200580006E74696E672062797465200066696C652E6F70656E206661696C65640046696C27
:2005A000652073656C6563746564002053697A653A0046696C65206F70656E65643A0045DE
:2005C0006E642066696C65206C69737400426567696E2066696C65206C69737400657272E3
:2005E0006F722077726974696E6720746F2066696C6500534420696E6974206661696C000C
:20060000657874727564657220636F6F6C6572207370656564205B302D3235355D006469F4
:200620007374616E636520746F2072657472616374207768656E2068656174696E67205BD7
:200640006D6D5D0074656D702E20666F722072657472616374696F6E207768656E206865FE
:200660006174696E67205B435D0074656D702E2073746162696C697A652074696D65205B37
:20068000735D005A2D6F6666736574205B73746570735D00592D6F6666736574205B737406
:2006A0006570735D00582D6F6666736574205B73746570735D00504944206D617820766148
:2006C0006C7565205B302D3235355D0050494420442D6761696E0050494420492D67616952
:2006E0006E0050494420502D6761696E2F646561642D74696D6500504944206472697665C3
:20070000206D696E00504944206472697665206D61780068656174206D616E61676572203B
:200720005B302D335D00616363656C65726174696F6E205B6D6D2F735E325D0073746172E9
:2007400074206665656472617465205B6D6D2F735D006D61782E206665656472617465207D
:200760005B6D6D2F735D00737465707320706572206D6D0042656420504944206D61782027
:2007800076616C7565205B302D3235355D004265642050494420442D6761696E0042656428
:2007A0002050494420492D6761696E004265642050494420502D6761696E00426564205048
:2007C0004944206472697665206D696E0042656420504944206472697665206D6178004204
:2007E00065642048656174204D616E61676572205B302D335D005A2D6178697320747261A8
:2008000076656C20616363656C65726174696F6E205B6D6D2F735E325D00592D6178697368
:200820002074726176656C20616363656C65726174696F6E205B6D6D2F735E325D00582D97
:20084000617869732074726176656C20616363656C65726174696F6E205B6D6D2F735E32A4
:200860005D005A2D6178697320616363656C65726174696F6E205B6D6D2F735E325D005998
:200880002D6178697320616363656C65726174696F6E205B6D6D2F735E325D00582D61782A
:2008A000697320616363656C65726174696F6E205B6D6D2F735E325D005A2D617869732012
:2008C000686F6D696E67206665656472617465205B6D6D2F735D00592D6178697320686FB0
:2008E0006D696E67206665656472617465205B6D6D2F735D00582D6178697320686F6D6992
:200900006E67206665656472617465205B6D6D2F735D005A2D61786973206D61782E2066F8
:2009200065656472617465205B6D6D2F735D00592D61786973206D61782E20666565647294
:20094000617465205B6D6D2F735D00582D61786973206D61782E20666565647261746520BB
:200960005B6D6D2F735D005A2D6178697320737465707320706572206D6D00592D6178698F
:200980007320737465707320706572206D6D00582D61786973207374657073207065722024
:2009A0006D6D004D61782E205A2D6A65726B205B6D6D2F735D004D61782E206A65726B2022
:2009C0005B6D6D2F735D005A206D6178206C656E677468205B6D6D5D0059206D6178206C84
:2009E000656E677468205B6D6D5D0058206D6178206C656E677468205B6D6D5D005A206D36
:200A0000696E20706F73205B6D6D5D0059206D696E20706F73205B6D6D5D0058206D696E3E
:200A200020706F73205B6D6D5D0053746F70207374657070657220616674657220696E613F
:200A400063746976697479205B6D732C303D6F66665D004D61782E20696E61637469766537
:200A60002074696D65205B6D732C303D6F66665D005072696E74657220616374697665207B
:200A80005B735D0046696C616D656E74207072696E746564205B6D5D004C616E67756167E1
:200AA00065004261756472617465004550523A3320004550523A3220004550523A31200050
:200AC0004550523A30200050726F746F636F6C2076657273696F6E206368616E6765642C17
:200AE00020757067726164696E6700436F6E66696775726174696F6E2072657365742074E6
:200B00006F2064656661756C74732E00436F6E66696775726174696F6E206C6F61646564DF
:200B20002066726F6D20454550524F4D2E00436F6E66696775726174696F6E2073746F728B
:200B4000656420746F20454550524F4D2E004175746F6C6576656C2061637469766520281E
:200B6000312F302900436F6174696E6720746869636B6E657373205B6D6D5D0077616974A4
:200B8000005072696E746572206865696768743A005472616E73666F726D6174696F6E20A7
:200BA0006D61747269783A004175746F6C6576656C696E672064697361626C656400417569
:200BC000746F6C6576656C696E6720656E61626C6564004175746F6C6576656C206D6174DE
:200BE000726978207265736574005072696E7465722073657420696E746F20647279207234
:200C0000756E206D6F646520756E74696C207265737461727421003A20776F726B696E673F
:200C2000003A2074656D702073656E736F72206465666563740065787472756465722000CC
:200C40006865617465642062656400504944204175746F74756E652066696E697368656422
:200C6000202120506C61636520746865204B702C204B6920616E64204B6420636F6E737489
:200C8000616E747320696E2074686520436F6E66696775726174696F6E2E68206F722045D2
:200CA0004550524F4D00504944204175746F74756E65206661696C6564212074696D656F7B
:200CC000757400504944204175746F74756E65206661696C6564212054656D7065726174D1
:200CE00075726520746F206869676800204B643A2000204B693A2000204B703A20002043F6
:200D00006C617373696320504944002054753A2000204B753A2000206D61783A2000206D8D
:200D2000696E3A200020643A200020626961733A2000504944204175746F74756E652073A6
:200D400074617274005461726765744265643A0054617267657445787472002F2F206163E0
:200D600074696F6E3A726573756D65002F2F20616374696F6E3A706175736500454550526E
:200D80004F4D207570646174656400205A4A65726B3A004A65726B3A007A5F6D61783A0051
:200DA0007A5F6D696E3A00795F6D61783A00795F6D696E3A00785F6D61783A00785F6D692A
:200DC0006E3A004C2000482000206973200020746F2000536574206F75747075743A200001
:200DE0002000496E76616C69642061726300206D696E0020686F7572732000206461797310
:200E000020006D20005072696E74696E672074696D653A005072696E7465642066696C613F
:200E20006D656E743A0046616E7370656564323A0046616E73706565643A00466C6F774DED
:200E4000756C7469706C793A0053706565644D756C7469706C793A00202F002F003A0020E2
:200E6000524157002042403A0020403A0020423A00543A0020453A00205A3A0020593A00E2
:200E8000583A00467265652052414D3A00556E6B6E6F776E20636F6D6D616E643A00536F19
:200EA000667477617265205265736574005761746368646F672052657365740042726F7798
:200EC0006E206F75742052657365740045787465726E616C20526573657400506F77657296
:200EE000557000737461727400736B6970200020676F7420004572726F723A657870656345
:200F0000746564206C696E65200053442072656164206572726F7200205200204A002049CA
:200F200000205000205300204600204500205A00205900205800446F6E65207072696E74C5
:200F4000696E672066696C6500466F726D6174206572726F720057726F6E67206368656320
:200F60006B73756D006F6B20004563686F3A00526573656E643A00496E666F3A0045727274
:200F80006F723A00494E46004E414E006F6B004649524D574152455F4E414D453A52657064
:200FA00065746965725F332E31204649524D574152455F55524C3A68747470733A2F2F67EC
:200FC00069746875622E636F6D2F72657065746965722F52657065746965722D4669726DCF
:200FE000776172652F2050524F544F434F4C5F56455253494F4E3A312E30204D41434849B1
:201000004E455F545950453A4D656E64656C2045585452554445525F434F554E543A312007
:2010200052455045544945525F50524F544F434F4C3A3300206D61726B6564206465636FC3
:2010400075706C656400206D61726B6564206465666563740053656C6563744578747275DF
:201060006465723A0044697361626C696E6720616C6C206865617465727320647565207417
:201080006F2064657465637465642073656E736F72206465666563742E00206465672E206E
:2010A0004300206D6561737572656420004572726F723A436F756C64206E6F7420686F6C48
:2010C000642074656D70657261747572652000206D730020616674657220004572726F7262
:2010E0003A54656D702E2072616973656420746F20736C6F772E2052697365203D200048CC
:20110000656174656420626564206578636565646564206D61782074656D706572617475CD
:201120007265210000001C151C140000002243141F1F1389153515C5147514000000000042
:2011400000ED13E1129112151299114D11000000008C030800AE035000D603A000F703F0CF
:201160000018044001380490015904E0017A0430029A048002BB04D002FC0470032605C048
:2011800003860630079709A00F750D201C520E401F1F0F6022FF0F803E0400081D90005830
:2011A000091C01B007A801C80634023006C002C0054C036805D80318056404D004F004986C
:2011C000047C05600408063004940600042007D003AC07A80338088003C40858035009307B
:2011E00003DC090803680AD802F40AB002800B88020C0C6002980C3002240DF801B00DC0F4
:20120000013C0E8001C80E3001540FB800B40F2800E00F00000400401D900060091C01B0DF
:2012200007A801D00634023806C002C8054C036805D80318056404D804F00498047C0560BC
:201240000408063004940600042007D003AC07A80338088003C408580350093003DC0908EF
:2012600003680AE002F40AB802800B88020C0C6002980C3002240DF801B00DC0013C0E8088
:2012800001C80E3001540FB800B40F2800E00F000004000016D800C006AC0178058002C02D
:2012A00004540348042804E803FC049803D0055003A40618037807D8024C08A802200970F8
:2012C00002F4093802C80A08029C0BD001700C9001440D5001180EF800EC0E8800C00F0063
:2012E000000400681D4C00500B94005809DC0050082401A8076C012807B401C006FC01703D
:2013000006440228068C02F005D402B8051C03880564035805AC033005F40310053C04E8B5
:20132000048404C804CC04A804140590045C057004A4055804EC053804340620047C06083D
:2013400004C406F0030C07D8035407C8039C07B003E40798032C08800374087003BC08581A
:2013600003040948034C09300394091803DC090803240AF0026C0AE002B40AC802FC0AB02C
:2013800002440BA0028C0B8802D40B70021C0C5802640C4002AC0C2802F40C10023C0DF087
:2013A00001840DD801CC0DB801140E98015C0E7001A40E4801EC0E1801340FD8007C0F885E
:2013C00000C40F0800FC0F0000000000000000000000000000000000000000000000000027
:2013E000000000000000000000000000000000401F450060094F0010095C00C0086B007079
:20140000087D0020089200D007AC008007CC003007DE00E006230190065E014006A601F0C6
:2014200005FF01A0056D025005F30200059603B0045A046004400510044806C0036E0770E6
:2014400003A8082003EB09D002230B8002410C3002390DE001040E9001A20E4001170FF0F0
:2014600000690FA000A20F5000C60F0000DD0FB0FFEB0F60FF0400700DD8004804AC0158E0
:20148000038002D8025403800228043802FC040002D005C801A4069801780770014C08483F
:2014A0000120091801F409F000C80AC8009C0BA000700C7000440D3800180E0000EC0EA8DE
:2014C000FFC00FE8FE0400001B54006009640010097400C008840070089C002008B800D07B
:2014E00007D8008007000130072C01E00668019006AC0140060002F0056802A005E0025011
:2015000005740300052404B004F0046004DC051004E406C0030408700330092003780B8096
:2015200002600DE001A80E4001680FA000C00F0000E80F60FF0400801AD8009808AC012045
:2015400007800250065403C80528045805FC040005D005B004A4066804780728044C08E874
:20156000032009B003F4097003C80A38039C0BF802700CB002440D6802180E0802EC0E88D3
:2015800001C00F8800F00F00000000A00F5C006009690010097900C0088C007008A20020F7
:2015A00008BD00D007DE008007050130073401E0066D019006B20140060702F0056D02A0C8
:2015C00005E80250057B0300052B04B004F8046004EB06C003350920037F0B8002650DE08E
:2015E00001B00E40011D0FF000480FC8006C0FA000ED0F60FFFE0F48FE0F0C53442065723E
:20160000726F72206669786564005344206572726F7220646964206E6F74207265636F7665
:201620006572210053442052656164204572726F72004D697373696E67206C696E656E75D0
:201640006D626572000000000000000000000000000000000024F403D950C38EB1C2A23DFD
:2016600096828B3582127AE372816CCB66A861015DC758EB546151204E1E4B5648C14559C6
:20168000431A41013F093D2F3B7139CD374036C93465331432D430A32F802E6B2D632C67AB
:2016A0002B752A8E29B028DC2710274B268F25D9242B248223E0224322AC211A218D200461
:2016C00020801F001F841E0C1E971D261DB81C4E1CE61B821B201BC11A641A0A1AB2195DAD
:2016E000190A19B9186A181C18D11788174017FA16B51673163116F115B31576153A1500F6
:2017000015C7148F1458142214EE13BA13881356132513F612C71299126C1240121512EB1C
:2017200011C1119811701148112111FB10D610B1108D106910461024100210E10FC00FA04E
:201740000F800F610F420F230F060FE80ECB0EAF0E930E770E5C0E410E270E0D0EF30DDA4E
:201760000DC10DA80D900D780D600D490D320D1B0D050DEF0CD90CC30CAE0C990C850C706C
:201780000C5C0C480C350C210C0E0CFB0BE80BD60BC40BB20BA00B8E0B7D0B6B0B5A0B4AA2
:2017A0000B390B290B180B080BF80AE90AD90ACA0ABB0AAC0A9D0A8E0A800A710A630A5543
:2017C0000A470A390A2C0A1E0A110A040AF709EA09DD09D009C409B709AB099F0992098727
:2017E000097B096F09630958094C09410936092B09200915090A090009F508EB08E008D6F4
:2018000008CC08C208B808AE08A4089A08900887087D0874086B08610858084F0846083D18
:201820000834082C0823081A08120809080108F807F007E807E007D807D007C807C007B8DF
:2018400007B007A807A1070000420FA1071605D0030D038B022E02E801B2018601630145F3
:20186000012C0117010401F4004D617854656D703A004469616D657465723A004163636562
:201880006C65726174696F6E3A004D617853706565643A004A65726B3A004D617842656468
:2018A00054656D703A005072696E746572547970653A43617274657369616E005A5472617D
:2018C00076656C416363656C3A005954726176656C416363656C3A005854726176656C41CF
:2018E0006363656C3A005A5072696E74416363656C3A00595072696E74416363656C3A0026
:20190000585072696E74416363656C3A005A53697A653A005953697A653A005853697A6500
:201920003A005A4D61783A00594D61783A00584D61783A005A4D696E3A00594D696E3A00D3
:20194000584D696E3A0052657472616374696F6E556E646F53706565643A005265747261F7
:201960006374696F6E556E646F45787472614C6F6E674C656E6774683A0052657472616323
:2019800074696F6E556E646F45787472614C656E6774683A0052657472616374696F6E5AE2
:2019A0004C6966743A0052657472616374696F6E53706565643A0052657472616374696F6B
:2019C0006E4C6F6E674C656E6774683A0052657472616374696F6E4C656E6774683A004A6C
:2019E00065726B5A3A004A65726B58593A005072696E746C696E6543616368653A0045454D
:201A000050524F4D3A004175746F6C6576656C3A005A50726F62653A00436173654C69673F
:201A20006874733A00537570706F72744C6F63616C46696C616D656E746368616E67653A65
:201A400000537570706F72744731304731313A005A486F6D654469723A0059486F6D65449C
:201A600069723A0058486F6D654469723A00536F667477617265506F7765725377697463B5
:201A8000683A004C43443A0046616E323A310046616E3A005344436172643A0048656174C9
:201AA00065644265643A004D6978696E6745787472756465723A004E756D45787472756473
:201AC00065723A00496E7075744275666665723A0042617564726174653A004E6F2063614E
:201AE0007365206C696768747300686F6D654178697320004E65656473206C616E6775617E
:201B000067652073656C656374696F6E0044656275674C6576656C3A00656E6473746F70FD
:201B200073206869743A2000005344207072696E742073746F707065642062792075736508
:201B4000722E0000473120583020592D3330005344206361726420696E73657274656400ED
:201B6000534420636172642072656D6F7665640000002110422063308440A550C660E770A6
:201B8000088129914AA16BB18CC1ADD1CEE1EFF13112100273325222B5529442F772D662B5
:201BA000399318837BB35AA3BDD39CC3FFF3DEE36224433420040114E664C774A444855475
:201BC0006AA54BB528850995EEE5CFF5ACC58DD55336722611163006D776F6669556B44635
:201BE0005BB77AA719973887DFF7FEE79DD7BCC7C448E5588668A7784008611802282338F5
:201C0000CCC9EDD98EE9AFF9488969990AA92BB9F55AD44AB77A966A711A500A333A122AB4
:201C2000FDDBDCCBBFFB9EEB799B588B3BBB1AABA66C877CE44CC55C222C033C600C411C74
:201C4000AEED8FFDECCDCDDD2AAD0BBD688D499D977EB66ED55EF44E133E322E511E700E34
:201C60009FFFBEEFDDDFFCCF1BBF3AAF599F788F8891A981CAB1EBA10CD12DC14EF16FE12C
:201C80008010A100C230E3200450254046706760B9839893FBA3DAB33DC31CD37FE35EF3B4
:201CA000B1029012F322D2323542145277625672EAB5CBA5A89589856EF54FE52CD50DC574
:201CC000E234C324A01481046674476424540544DBA7FAB79987B8975FE77EF71DC73CD734
:201CE000D326F2369106B01657667676154634564CD96DC90EF92FE9C899E9898AB9ABA9F4
:201D00004458654806782768C018E1088238A3287DCB5CDB3FEB1EFBF98BD89BBBAB9ABBB3
:201D2000754A545A376A167AF10AD01AB32A923A2EFD0FED6CDD4DCDAABD8BADE89DC98D73
:201D4000267C076C645C454CA23C832CE01CC10C1FEF3EFF5DCF7CDF9BAFBABFD98FF89F33
:201D6000176E367E554E745E932EB23ED10EF01E7C3C3E5E2B3D3F2F5B5D3B2C2A225C0026
:201D80005265717565737450617573653A0055495F414354494F4E5F5345545F4D45415397
:201DA000555245445F4F524947494E2000696D706F7274616E743A2046696C616D656E7444
:201DC000206368616E6765207265717569726564210055495F414354494F4E5F484F4D4598
:201DE0005F5A200055495F414354494F4E5F484F4D455F59200055495F414354494F4E5FD5
:201E0000484F4D455F58200055495F414354494F4E5F484F4D45414C4C200055495F414305
:201E200054494F4E5F45504F534954494F4E200055495F414354494F4E5F5A504F5349542C
:201E4000494F4E5F46415354200055495F414354494F4E5F59504F534954494F4E5F464121
:201E60005354200055495F414354494F4E5F58504F534954494F4E5F464153542000554969
:201E80005F414354494F4E5F5A504F534954494F4E200055495F414354494F4E5F59504FC5
:201EA000534954494F4E200055495F414354494F4E5F58504F534954494F4E20002064653C
:201EC0006320002064656620004765726D616E2052657052617020476D62480058333530DE
:201EE0002F50726F00892756272327F026040003000000003FCDCC4C3D0AD7A33B6F12034A
:201F00003A4752522D4669726D7761726520332E3100004014548025000040380000004B70
:201F200000008070000000960000C0DA000000E10000002C010008B2010000C2010000F401
:201F400001000084030090D0030000E803000008070020A1070000100E0040420F0060E3E2
:201F6000160000000000110A0411040A1111001C1F11111F0000040A0A0A0E1F1F0E001FD4
:201F80001111111F0000001F1F1F1F1F0000040A040000000000040E15041C0000000200F9
:201FA000000900A51FE726DB1FD622D21FC91F10239622C01FB71F000002E41F00000D00CA
:201FC000000002612200001100000002DD2300000F00000002142400000E000000026F237E
:201FE00000000B000200000900EB1FE7266D20742664205B205220492040203720031027C2
:20200000020004201120082000000000000000A80000000000000000A70003102702002195
:20202000202E20252000000000000000A60000000000000000A500000003070400003B0059
:20204000000003060400003A0000000276200000A2000000028D2000000F00000002B52169
:2020600000004E00000002002200003900000002462100008A0002000008007D20E726FE10
:2020800020EC20E320DA20D120C820F52002000011009420E7263D2134212B2122211921D9
:2020A00007211021FE20EC20E320DA20D120C820BF20B620F52000000426044000960000F9
:2020C0000004220440009500000004260420009A00000004250420009900000004240420E7
:2020E0000098000000042304200097000000042204200094000000042F0400009B000000B6
:20210000042D04000093000000044D040000BC000000044C040000BB000000042E040000A1
:2021200090000000042A0400008F000000042B0400008E000000042C0400008D00000004C8
:20214000290400008C0002000005004D21E7267221692160215721000003B2040000D000A5
:202160000000027B2100008700000002982100008400000004100400008B000358040200F7
:2021800082218F21862100000000000000890000000000000000880003200402009F21AC9F
:2021A00021A3210000000000000086000000000000000085000200000700BC21E726F72124
:2021C000EE21E521DC21D321CA21000004130400005500000004120400005400000004111B
:2021E0000400005300000004160400005100000004150400005000000004140400004F0041
:2022000002000009000722E72658224F2246223D2234222B22222219220000040F04000092
:2022200038000000040E04000037000000040D04000035000000040C040000340000000483
:202240000B04000033000000040A0400003100000004090400003000000004080400002F79
:202260000002000005006822E7268D2284227B227222000003350400003F00000003340484
:2022800000003E00000003330400003D00000003320400003C000000029F2200001000023F
:2022A00000000600A622E726D622CD22C422BB22B222000003F40301024D00000002E8226F
:2022C0000200C900000003F70304004A00000003F60302044900000003F503010248000156
:2022E00000000100E622E7260200000300EF220723FE22F5220000035424020003000000D1
:2023000003E8030000040000000100000000C900000002192300007D0002000008002023F9
:20232000E72666235D2354234B23422339233023000003B4040000D2000000031E040000DC
:2023400083000000031D04000082000000031C04000081000000031B04000080000000030B
:202360001A0408007F00000004520400007E000200000B007623E726C224A7239E23952304
:202380008C23D423CB23C223B923B02300000388130000CB0000000448040000B1000000AB
:2023A000041F040000B00000000457040000CA00000003430400101C00000003310400105F
:2023C0001B00000003380400001A00000003470400001800000003370400001700020000CC
:2023E0000600E423E72602240B24F9238324F023000003440400002E000000033A040000DE
:2024000028000000046104000024000000046204000025000200000D001B24E726C224B97E
:2024200024B024A7247A249E247124952468248C24832435240000023E2400000601020082
:202440000004004524E7265F2456244D24000004B60F00000901000004B50F0000080100F0
:202460000004B40F00000701000002FE240000220000000231250000200000000264250044
:20248000001E00000002CB2400002300000002972500002100000002CA2500001F0000001B
:2024A00002FD2500001D00000003000400101600000003FF0300101500000003FE03001070
:2024C0001400000003FD030010130003F0030400D224F524EC24E324DA24000000000000A4
:2024E00000F20000000000000000AB00000000000000007000000000000000006F0003FC61
:20250000030400052528251F2516250D25000000000000006E00000000000000006D0000B1
:202520000000000000006C00000000000000006B0003FB03040038255B2552254925402598
:20254000000000000000006A00000000000000006900000000000000006800000000000040
:202560000000670003FA0304006B258E2585257C2573250000000000000066000000000064
:20258000000000650000000000000000640000000000000000630003EF0304009E25C1256D
:2025A000B825AF25A62500000000000000620000000000000000610000000000000000607C
:2025C00000000000000000005F0003EE030400D125F425EB25E225D9250000000000000080
:2025E0005E00000000000000005D00000000000000005C00000000000000005B0003ED0376
:202600000400042627261E2615260C26000000000000005A000000000000000059000000DB
:2026200000000000005800000000000000005700058813040037265A26512648263F260020
:20264000000000000000CF0000000000000000CE0000000000000000CD0000000000000010
:2026600000CC0082000005006A26D626C526B426A22690260000027D260000E400020000AD
:2026800006008426E726D626C526B426A2269026992603A826000000004974616C69616EEC
:2026A0006F00AB2603AB26000000004672616E6361697300BD2603A9260000000045737002
:2026C000616E6F6C00CE2603A526000000004465757473636800DF2603A4260000000045A7
:2026E0006E676C69736800000003E80300000A000000000400F7261A2711270827FF26006F
:20270000000000000000F10000000000000000C40000000000000000F00000000000000014
:2027200000C30000000004002A274D2744273B27322700000000000000F3000000000000F4
:202740000000F40000000000000000AF0000000000000000AC0000000004005D2780277784
:20276000276E27652700000000000000F300000000000000005F00000000000000005B0064
:2027800000000000000000570000000004009027B327AA27A127982700000000000000F302
:2027A0000000000000000000EE0000000000000000ED0000000000000000EB000000FF0054
:2027C000000000010100000000FF00000001040507FF6D67FE57000000007F47A237000020
:2027E000E8270000000000009F379B37973793378F37813776376D375D374C3743373237C1
:202800002E37203717370C370337FA36EC36DF36D536CB36C136B336A53696368C367936C6
:2028200067365C364E36433635362A361C360D36FA35E735D435C135B0359F358E357A3597
:2028400066355235473539352B351D3511350335F534E734DB34D234C734BA34A734963455
:202860008A347E3471345F34533442343334253418340B34F633EC33DC33CD33BA33AC3345
:202880009E33903389337F3375336B3363335533473339332D332433163308330733FE3247
:2028A000F032E232E132D832CA32BC32BB32B232A432963295328C327E3270326F3266325C
:2028C00058324A324932403232322932193210320032F731E731DE31CE31C531B531AC3180
:2028E0009C318F317B316D315F31513143313731293119310D310131F130E530DD30D030BC
:20290000C530B830AD30A33094308530753068305E304F303F3035302B301D300F30033079
:20292000F62FE92FE02FDC2FD12FC12FB52FAE2F9E2F902F7D2F6F2F5E2F4D2F422F312FDF
:20294000202F0F2FFE2EED2EDC2ECB2EBC2EAF2EA42E9B2E912E872E7D2E682E5B2E4B2E87
:202960003A2E292E182E072EFF2DFD2DFC2DEB2DDA2DD22DC12DB62DA92D9A2D882D742DBC
:20298000602D4F2D3D2D292D1A2D0A2DF92CEC2CD92CCA2CBF2CAA2CA22C902C7D2C7C2C1C
:2029A0006B2C622C5B2C512C422C332C2B2C1D2C162C052CF42BDE2BC62BBD2BB92BA62B58
:2029C0009C2B8B2B7A2B6E2B6A2B642B562B522B512B472B412B3A2B272B142B012BF02A84
:2029E000DF2ACE2ABA2AA62A922A812A752A682A5B2A472A352A222A0F2AFC29536574203F
:202A00005A206F66667365743A2554326D6D005365742059206F66667365743A2554316D59
:202A20006D005365742058206F66667365743A2554306D6D00536574207072696E74206F19
:202A40006666736574730048617574657572205A2D536F6E64653A257A680025443320333D
:202A600020436F7069657300254432203220436F7069657300254431203120436F70696568
:202A80000025443020417563756E6520436F706965002558352053656C6563742E204578CF
:202AA00074722E2036002558342053656C6563742E20457874722E2035002558332053657F
:202AC0006C6563742E20457874722E203400457874727564657573652036204F66660045D7
:202AE0007874727564657573652035204F666600457874727564657573652034204F6666A0
:202B00000054656D702E2036203A2565352F25453502430054656D702E2035203A2565343E
:202B20002F25453402430054656D702E2034203A2565332F254533024300202542436D6D9F
:202B400000052565630200052565632F254563020000256F7300255566206D20496D707265
:202B6000696D6500255566206D0025557400583A25783020593A257831004D756C3A202532
:202B80006F6D202020453A257834005A3A2578322020427566203A20256F4200422565428B
:202BA0002F2545620200052565632F25456302422565422F2545620200256F7300427566F9
:202BC0003A20256F42004D756C3A20256F6D25252520FD202020453A202578346D00466CC1
:202BE0006F773AFD20256F662525252020205A3A257832000E202565622F254562B020592E
:202C00003A257831000A202565302F254530B020583A257830004C616E67756500436F754D
:202C200074756D653A2542436D6D00436F7574756D65004261746F6E20646520436F6C6CB2
:202C40006500527562616E20766572742050455400426C75652054617065004B6170746FFC
:202C60006E004275696C6454616B00417563756E205265766574656D656E7400005265766E
:202C80006574656D656E74206465204C69743A005265766574656D656E74206465204C69F9
:202CA00074005374616E6462790053746F636B616765206427457874727573696F6E0063BB
:202CC00069626C6573202E2E2E00417474656E64657A2054656D702E00526563686175665A
:202CE000666572204578747275642E00436C697175657A20706F75720049676E6F72657234
:202D0000204D3130362025466900506F732E20536572766F3A20256F53004175746F6C6581
:202D200076656C3A20256C6C00436F6E74696E756572206176656320436C69630046696CC9
:202D4000616D656E7420686175742F62617300546F75726E657A204465706C6163657200F0
:202D60004368616E67656D656E742046696C616D656E74004368616E67656D656E742046A9
:202D8000696C616D656E74005A2042616279737465702E3A256F596D6D0041727265742048
:202DA000496D70726573732E00546F7574206F75205269656E0054656D7073204D6F7274D9
:202DC0000041545820706F776572206F6E2F6F666600496D7072696D650046696C616D6531
:202DE0006E7420496D7072696D650054656D707320496D7072657373696F6E00003A002052
:202E00006A6F7572732000696D7072696D616E746520707265746500436172746520534443
:202E200020696E73657265650043617274652053442072657469726565004174742E205505
:202E40006E6974733A2558556D6D004174742E2054656D702E2558540243004E697665618A
:202E6000752064656C74610043616C63756C6572204E6976656C6C656D656E7400526567C7
:202E80006C6572205033005265676C6572205032005265676C6572205031005A2043616CBD
:202EA00069622E005265676C6572205A3D30005265736574204D6573757265004D6F6E749F
:202EC000726572204D657375726500466C6F77204D756C2E3A256F66252525005669742E00
:202EE000204D756C2E3A256F6D2525250020423A2565622F25456202437E256F62004533F8
:202F00003A2565322F25453202437E256F320045323A2565312F25453102437E256F3100A9
:202F200045313A2565302F25453002437E256F300020453A2565632F25456302437E256FF8
:202F4000430054616D706F6E3A256F420054656C656368617267656D656E742E2E00436800
:202F60006172672E20662E20454550524F4D00436F6E66696775726174696F6E0053746FBF
:202F8000636B2E2044616E7320454550524F4D00436F6E66696775726174696F6E004D6F93
:202FA000746575727320417272657465730053746F707065004368617566662E204C6974A9
:202FC000004368617566662E204578747275642E00416374696F6E3A256C61005049440045
:202FE00042616E6742616E6700592D4F66667365743A25587900582D4F66667365743A2579
:20300000587800504944204D61783A255844004472697665204D61783A25584D004472695F
:203020007665204D696E3A25586D0050494420443A2558640050494420493A25586900503B
:20304000574D20436F6E74726F6C3A25584D0054656D7073204D6F72743A2558700050493C
:203060004420503A25587000436F6E74726F6C653A255868004176616E63652071756164F7
:203080003A255861004176616E6365206C696E3A25586C00537461622E54656D70733A2524
:2030A000587700416363656C3A255841004D61782046523A255846005374617274204652D0
:2030C0003A255866005061732F4D4D3A2553650042617564726174653A256F630047656E5C
:2030E0006572616C005B6D696E5D20303D4F6666004469732E2041707265733A20256970C7
:2031000000417272657420416C696D2E005B6D696E5D20303D4F6666004469732E2041701D
:203120007265733A20256973004172726574204D6F74657572730056656E74696C2E204DD0
:2031400061780056656E74696C2E2037352525250056656E74696C2E203530252525005611
:20316000656E74696C2E2032352525250041727265742056656E74696C2E005669742E20D0
:2031800056656E74696C2E3A254673252525005669742E2056656E74696C2E004D696E3A89
:2031A00025737A204D61783A25735A005A3A257832206D6D004D696E3A257379204D617879
:2031C0003A25735900593A257831206D6D004D696E3A257378204D61783A25735800583AF9
:2031E000257830206D6D004D696E3A25737A204D61783A25735A005A3A257832206D6D00C9
:203200004D696E3A257379204D61783A25735900593A257831206D6D004D696E3A25737805
:20322000204D61783A25735800583A257830206D6D003120636C6963203D2031206D6D0031
:20324000453A257833206D6D00004D61782042757465653A25735A004D696E2042757465EA
:20326000653A25737A005A3A257832206D6D00004D61782042757465653A257359004D6924
:203280006E2042757465653A25737900593A257831206D6D00004D61782042757465653A90
:2032A000257358004D696E2042757465653A25737800583A257830206D6D00004D617820FC
:2032C00042757465653A25735A004D696E2042757465653A25737A005A3A257832206D6DEB
:2032E00000004D61782042757465653A257359004D696E2042757465653A25737900593A51
:20330000257831206D6D00004D61782042757465653A257358004D696E2042757465653A0D
:2033200025737800583A257830206D6D004163637565696C3A25665A004163637565696C99
:20334000205A3A25665A004163637565696C20593A256659004163637565696C20583A25FA
:203360006658004D61783A25667A004D6178205A3A25667A004D617820593A256679004D21
:20338000617820583A256678004176616E636500537570702E206669636869657200496ECA
:2033A0007365726572204361727465005265746972657220436172746500436F6E74696E86
:2033C00075657220496D70726573732E00506175736520496D70726573732E00496D7072A9
:2033E000696D2E206669636869657200416E7469204F6F7A650044C383C2A9706C61632EC3
:203400002041707265733A254F61004D696E2E646973743A254F64004261636B736C2E20CC
:203420003A254F6200526574726163742E203A254F7200254F32204F505320526170696471
:203440006500254F31204F505320436C61737369712E00254F30204F5053204F66660046FB
:203460006F6E63742E206120566964653A2564640045727265757273203A25646500496E33
:20348000666F2020203A256469004563686F2020203A25646F0043686172672E20662E20D3
:2034A000454550524F4D0053746F636B2E2044616E7320454550524F4D00416363656C6547
:2034C000726174696F6E005A2D4A65726B3A25614A004A65726B3A25616A004465706C61A6
:2034E000632E3A25615A004465706C61632E205A3A25615A004465706C61632E20593A25C7
:203500006159004465706C61632E20583A25615800496D7072696D2E3A25617A00496D70EE
:2035200072696D2E205A3A25617A00496D7072696D2E20593A25617900496D7072696D2E77
:2035400020583A25617800536574204F726967696E002558312053656C6563742E204578CE
:2035600074722E2033002558312053656C6563742E20457874722E203200255830205365C0
:203580006C6563742E20457874722E203100457874727564657573652033204F6666004512
:2035A0007874727564657573652032204F666600457874727564657573652031204F6666DB
:2035C0000054656D702E2032203A2565322F25453202430054656D702E2032203A25653184
:2035E0002F25453102430054656D702E2031203A2565302F2545300243004C697420546583
:203600006D703A2565622F254562024300506F736974696F6E20457874722E00506F732EC1
:2036200020526170696465205A00506F736974696F6E205A00506F732E20526170696465F7
:20364000205900506F736974696F6E205900506F732E20526170696465205800506F73693B
:2036600074696F6E20580044657361637469762E204D6F7465757273005265676C657A201F
:20368000737572204F726967696E6500526566726F696469720045636C61697261676520A0
:2036A0003A256C6F0050726563686175662E204142530050726563686175662E20504C4125
:2036C000004163637565696C205A004163637565696C2059004163637565696C205800411C
:2036E00063637565696C20546F7574004163637565696C2044656C7461004465626F677573
:203700006572004361727465205344004578747275646575736500506F736974696F6E00A9
:20372000436F6E66696775726174696F6E00256F65005265676C61676573205261706964FE
:203740006573005265746F75722001002A2A2A2A20455252455552202A2A2A2A0050617366
:20376000206465204361727465205344004175205265706F7300496D7072657373696F6E92
:2037800000496D7072657373696F6E2E2E2E004E6F6E004F7569004E2F41004F6666004FF6
:2037A0006E007C477847744771476E475F4753474E473F472F47274712470E470047F74680
:2037C000EE46E346D946CE46C446BD46B646AF469F468F4685467D466F465F465446464693
:2037E0003B462D46224614460546F145DE45CB45B845A9459A458B4578456545524544453E
:2038000038452C45204516450A45FE44F244E844DF44D444C844B544A54499448D4481446B
:203820006D446144504441443144244417440844FE43EA43D743C143AD439F438E4385439E
:203840007B43714367435F43544349433E4335432C43184310430F430643F242EA42E9424B
:20386000E042CC42C442C342BA42A6429E429D4294428042784277426E425A4252425142EC
:20388000484239423042204217420742FE41EE41E541D541CC41BC41B341A3418F417D4193
:2038A0006C415841444130411B410C41FA40EE40E040CE40C240BA40AD40A0409340884029
:2038C0007F406D405D404C4040403640244014400A400040F23FE43FD83FCB3FBE3FB53FB5
:2038E000B13FA63F923F823F7B3F693F613F4C3F443F323F223F173F063FF53EE43ED33E7E
:20390000C23EAA3E973E863E743E6C3E633E5C3E553E4E3E3B3E2F3E1A3E033EF13DDC3DAA
:20392000CB3DC43DC23DC13DAD3D9B3D933D803D723D693D573D453D343D233D133D013D68
:20394000ED3CDE3CCE3CB93CAA3C993C8A3C7D3C6C3C643C513C3C3C3B3C293C203C193C11
:20396000053CF53BE23BDB3BCE3BC73BB63BA53B8F3B773B6E3B6A3B573B4D3B3C3B2B3B06
:203980001F3B1B3B153B073B033B023BF83AF23AEB3AD83AC53AB23AA33A943A853A723AD4
:2039A0005F3A4C3A3A3A2E3A213A143A013AEF39DC39C939B639536574205A206F66667386
:2039C00065743A2554326D6D005365742059206F66667365743A2554316D6D0053657420F9
:2039E00058206F66667365743A2554306D6D00536574207072696E74206F66667365747378
:203A000000416C74757261205A2D50726F62653A257A6800254433203320436F70696173EF
:203A200000254432203220436F7069617300254431203120436F70696100254430204E6FAD
:203A40002048617920436F70696173002558352053656C65637420457874722E2036002507
:203A600058342053656C65637420457874722E2035002558332053656C6563742045787473
:203A8000722E2034004578747275736F722036204F6666004578747275736F722035204F05
:203AA0006666004578747275736F722034204F66660054656D702E2036203A2565352F25B8
:203AC000453502430054656D702E2035203A2565342F25453402430054656D702E203420AC
:203AE0003A2565332F254533024300202542436D6D00052565630200052565632F25456338
:203B0000020000256F7300255566206D20696D707265736F00255566206D0025557400585D
:203B20003A25783020593A257831004D756C3A20256F6D202020453A257834005A3A257893
:203B4000322020427566203A20256F4200422565422F2545620200052565632F254563028B
:203B6000422565422F2545620200256F73004275663A20256F42004D756C3A20256F6D2538
:203B8000252520FD202020453A202578346D00466C756A6F3AFD20256F6625252520205A27
:203BA0003A257832000E202565622F254562B020593A257831000A202565302F254530B059
:203BC00020583A257830004964696F6D6100437573746F6D3A2542436D6D00437573746FCC
:203BE0006D00426172726120646520706567616D656E746F00566572646520504554206325
:203C0000696E74610043696E746120616468657369766120617A756C004B6170746F6E005B
:203C20004275696C6454616B0053696E20726563756272696D69656E746F00005265632E6A
:203C40002063616D6120616A75737461646F206100526563756272696D69656E746F2063DB
:203C6000616D61005374616E6462790041746173636F206578747275736F7261006F626A9D
:203C8000657469766F202E2E2E0045737065726520612074656D702E00726563616C656E90
:203CA00074617220657874722E004861676120636C696320706172610049676E6F726172EA
:203CC000204D31303620636D642025466900506F732E20736572766F3A20256F53004175F2
:203CE000746F6C6576656C3A20256C6C00436C6963206375616E646F2073652068616365B4
:203D00000066696C2E206172726962612F6162616A6F00476972652070617261206D6F76C0
:203D200065720043616D62696F2066696C616D656E746F0043616D62696F2066696C616D0E
:203D4000656E746F005A2042616279737465702E3A256F596D6D00446574656E657220697A
:203D60006D70726573696F6E00536C6F7742616E67005469656D706F206D756572746F008F
:203D8000456E657267696520415458206F6E2F6F666600696D707265736F0046696C616D08
:203DA000656E746F20696D7072657361007469656D706F20646520696D70726573696F6ECF
:203DC00000003A0020646961732000496D707265736F7261206C697374612E005461726A1A
:203DE00065746120534420696E73657274616461005461726A6574612053442072657469A1
:203E00007261004573706572616E646F20556E696461643A2558556D6D0045737065726173
:203E20006E646F2054656D702E2558540243004E6976656C2064656C74610043616C637537
:203E40006C61206E6976656C6163696F6E0053657420503300536574205032005365742064
:203E60005031005A2063616C69622E00536574205A3D30005265736574656172206D65647A
:203E80006963696F6E004D6F7374726172206D65646963696F6E004D756C742E20466C75A9
:203EA0006A6F3A256F66252525004D756C742E2056656C6F63696461642E3A256F6D252558
:203EC000250020423A2565622F25456202437E256F620045333A2565322F25453202437E85
:203EE000256F320045323A2565312F25453102437E256F310045313A2565302F2545300209
:203F0000437E256F300020453A2565632F25456302437E256F43004275666665723A256FD2
:203F2000420041637475616C697A616E646F2E2E2E00636172676164612064652045455030
:203F4000524F4D00436F6E6669672E00616C6D6163656E61646120656E20454550524F4D1D
:203F600000436F6E6669672E00446573686162696C697461206D6F746F720041626F72741A
:203F8000610043616C656E74616E646F2043616D610043616C656E74616E646F20457874EB
:203FA0007275736F7200416363696F6E3A256C61005049440042616E6742616E6700592DFA
:203FC0004F66667365743A25587900582D4F66667365743A25587800504944204D61783AD2
:203FE000255844004472697665204D61783A25584D004472697665204D696E3A25586D005A
:2040000050494420443A2558640050494420493A2558690050574D20636F6E74726F6C3A8F
:2040200025584D005469656D706F206D756572746F3A2558700050494420503A25587000F1
:20404000436F6E74726F6C3A25586800416476616E636520717561643A25586100416476B0
:20406000616E6365206C696E3A25586C005469656D706F2045737461622E3A255877004109
:2040800063656C3A255841004D61782046523A2558460053746172742046523A2558660036
:2040A0005061736F732F4D4D3A2553650042617564726174653A256F630047656E6572616F
:2040C0006C005B6D696E5D20303D4F6666004469732E20446573707565733A202569700031
:2040E0004D61782E20496E61637469766F005B6D696E5D20303D4F6666004469732E2044B9
:204100006573707565733A20256973004D6F746F7220496E61637469766F0056656E74693B
:204120006C61646F7220616C203130302525250056656E74696C61646F7220616C203735CF
:204140002525250056656E74696C61646F7220616C2035302525250056656E74696C6164C0
:204160006F7220616C2032352525250041706167612076656E74696C61646F720056656C22
:204180002E2076656E742E3A2546732525250056656C6F636964612076656E74696C6164C1
:2041A0006F72004D696E3A25737A204D61783A25735A005A3A257832206D6D004D696E3A81
:2041C000257379204D61783A25735900593A257831206D6D004D696E3A257378204D61784E
:2041E0003A25735800583A257830206D6D004D696E3A25737A204D61783A25735A005A3AC6
:20420000257832206D6D004D696E3A257379204D61783A25735900593A257831206D6D009A
:204220004D696E3A257378204D61783A25735800583A257830206D6D003120636C69636BF0
:20424000203D2031206D6D00453A257833206D6D00004D61783A25735A0046696E2043613A
:204260007272657261204D696E3A25737A005A3A257832206D6D00004D61783A25735900E4
:2042800046696E2043617272657261204D696E3A25737900593A257831206D6D00004D6189
:2042A000783A2573580046696E2043617272657261204D696E3A25737800583A2578302052
:2042C0006D6D00004D61783A25735A0046696E2043617272657261204D696E3A25737A0025
:2042E0005A3A257832206D6D00004D61783A2573590046696E2043617272657261204D693D
:204300006E3A25737900593A257831206D6D00004D61783A2573580046696E204361727274
:20432000657261204D696E3A25737800583A257830206D6D00486F6D653A25665A005A203C
:20434000486F6D653A25665A005920486F6D653A256659005820486F6D653A256658004D2A
:2043600061783A25667A005A204D61783A25667A0059204D61783A2566790058204D6178CB
:204380003A25667800466565647261746500426F7272616E646F206669636865726F004D3C
:2043A0006F6E74616E646F2043617264004465736D6F6E74616E646F205461726A65746109
:2043C00000436F6E74696E75616E646F20696D70726573696F6E0050617573616E646F200A
:2043E000696D70726573696F6E00496D7072696D69656E646F206669636865726F00416EBB
:204400007469204F6F7A65004D6F76652061667465723A254F61004D696E2E646973743AEA
:20442000254F64004261636B736C2E203A254F620052657472616363696F6E203A254F72AC
:2044400000254F32204F50532052617069646100254F31204F505320436C61737369636139
:2044600000254F30204F5053204F666600456A65637563696F6E20766163696F3A2564645D
:20448000004572726F7273203A25646500496E666F2020203A256469004563686F20202060
:2044A0003A25646F00436172676120646520454550524F4D00416C6D6163656E6120656E16
:2044C00020454550524F4D004163656C65726163696F6E005A2D4A65726B3A25614A004A37
:2044E00065726B3A25616A004D756576653A25615A004D75657665205A3A25615A004D75DC
:2045000065766520593A256159004D7565766520583A256158005072696E743A25617A00F0
:204520005072696E74205A3A25617A005072696E7420593A256179005072696E7420583A3C
:204540002561780046696A61204F726967696E656E002558322053656C6563742045787408
:20456000722E2033002558312053656C65637420457874722E2032002558302053656C6581
:20458000637420457874722E2031004578747275736F722033204F6666004578747275737D
:2045A0006F722032204F6666004578747275736F722031204F66660054656D702E2033205E
:2045C0003A2565322F25453202430054656D702E2032203A2565312F2545310243005465E2
:2045E0006D702E2031203A2565302F25453002430054656D702E43616D613A2565622F258D
:204600004562024300457874722E20506F736963696F6E00506F732E205261706964612088
:204620005A00506F736963696F6E205A00506F732E20526170696461205900506F7369631A
:20464000696F6E205900506F732E20526170696461205800506F736963696F6E2058004452
:204660006573616374697661206D6F746F720046696A612061206F726967656E00456E66E1
:2046800072696172004C756365733A256C6F0050726563616C656E7461722041425300507F
:2046A000726563616C656E74617220504C41005A20486F6D65005920486F6D650058204817
:2046C0006F6D6500546F646F20486F6D650044656C746120486F6D65004465627567676910
:2046E0006E67005461726A657461205344004578747275736F7200506F736963696F6E00B3
:20470000436F6E66696775726163696F6E00256F6500436F6E66696775726163696F6E20F2
:204720005261706964610041747261732001002A2A2A2A204552524F52202A2A2A2A00539F
:20474000696E207461726A6574612053440049646C6500496D7072696D69656E646F00497C
:204760006D7072696D69656E646F2E2E2E004E6F005369004E2F41004F6666004F6E00FB71
:2047800057F757F357F057ED57E357DC57D657C957B857AD579957955786577C5772576815
:2047A000575F575157435739572F5725571157FD56F456E556D056BD56B156A35697568929
:2047C000567D566F565B564956365623561056FD55EA55D755C155AB559555855578556B61
:2047E000555E55535543553355235515550A55FD54EF54DF54CE54C354B754AB549B548C23
:20480000547B546C54605450543E542B541F5413540654F653E753D953CB53C153B353A58C
:204820005397538B537D536F53615355534C533D532E532D532453155306530553FC52ED74
:2048400052DE52DD52D452C552B652B552AC529D528E528D5284527552665265525C524CA9
:2048600052435233522A521A5211520152F851E851DF51CF51C651B651A55191517D516C2C
:20488000515E5150513D512C511D5111510051F050E450DB50CE50C150AD509B5091508133
:2048A000506D50575049503F502F501D5013500950FB4FED4FE14FD44FC74FBE4FBA4FAFC0
:2048C0004F9C4F8C4F834F6E4F5F4F4D4F3E4F2B4F1C4F104FFF4EEE4EDD4ECC4EBB4EA49E
:2048E0004E904E7F4E6A4E624E594E4C4E3F4E324E1D4E0F4EFD4DE94DD94DC84DB64DADD6
:204900004DAB4DAA4D9A4D884D7F4D744D684D5F4D504D3E4D2D4D1C4D074DF64CE24CD40E
:204920004CC44CB04CA54C904C7C4C684C534C4A4C374C234C224C144C0B4C044CF14BE01E
:204940004BD44BCD4BC04BB94BA84B974B814B694B604B5C4B494B3F4B2E4B1D4B114B0DB7
:204960004B074BF84AF44AF34AE94AE34ADC4AC94AB64AA34A904A7D4A6A4A544A3E4A28B4
:204980004A164A0A4AFE49F249DE49CC49B949A6499349536574205A206F66667365743A07
:2049A0002554326D6D005365742059206F66667365743A2554316D6D005365742058206F35
:2049C00066667365743A2554306D6D00536574207072696E74206F66667365747300416CC2
:2049E00074657A7A61205A2D50726F62653A257A6800254433203320436F70696500254441
:204A000032203220436F70696500254431203120436F70696100254430204E657373756ED6
:204A20006120436F706961002558352053656C657A696F6E6120457374722E2036002558CE
:204A4000342053656C657A696F6E6120457374722E2035002558332053656C657A696F6EFE
:204A60006120457374722E2034004573747275736F72652036205370656E746F00457374AE
:204A80007275736F72652035205370656E746F004573747275736F72652034205370656EB2
:204AA000746F0054656D702E2036203A2565352F25453502430054656D702E2035203A2535
:204AC00065342F25453402430054656D702E2034203A2565332F2545330243002025424321
:204AE0006D6D00052565630200052565632F254563020000256F7300255566206D2073747D
:204B0000616D7061746F00255566206D0025557400583A25783020593A257831004D756CAA
:204B20003A20256F6D202020453A257834005A3A2578322020427566203A20256F42004218
:204B40002565422F2545620200052565632F25456302422565422F2545620200256F73008A
:204B60004275663A20256F42004D756C3A20256F6D25252520FD202020453A202578346D96
:204B800000466C7573736F3AFD20256F66252525205A3A257832000E202565622F25456241
:204BA000B020593A257831000A202565302F254530B020583A257830004C696E6775610088
:204BC0005573616E7A613A2542436D6D005573616E7A6100436F6C6C6120737469636B000A
:204BE000566572646520504554206E617374726F00426C75206E617374726F206164657368
:204C000069766F004B6170746F6E004275696C6454616B004E6F6E20726976657374697404
:204C20006F0000526976657374696D656E746F206C6574746F3A00526976657374696D65C2
:204C40006E746F206C6574746F005374616E642D62790053746F6363616767696F206573BE
:204C6000747275736F72650064692064657374696E617A696F6E65202E2E2E0041747465EE
:204C80006E64657265206368652074656D702E0072697363616C6461726520657374727545
:204CA000736F726900436C69636361207065720049676E6F7261204D31303620636D6420B9
:204CC00025466900506F732E20736572766F3A20256F53004175746F6C69762E3A20256C13
:204CE0006C00436C69636361207175616E646F20666174746F0066696C616D656E746F2044
:204D000073752F6769750052756F74617265207065722073706F73746172650043616D62EA
:204D200069612066696C616D656E746F0043616D6269612066696C616D656E746F005A2034
:204D400042616279737465702E3A256F596D6D004172726573746F205374616D7061005331
:204D60006C6F7742616E670054656D706F206D6F72746F00415458206F6E2F6F666600734C
:204D800074616D7061746F0046696C616D656E74207374616D706174610054656D706F204D
:204DA0006469207374616D706100003A002067696F726E6920005374616D70616E746520B1
:204DC00070726F6E74612E005344204361726420696E736572697461005344204361726430
:204DE0002072696D6F73736F0041747465736120556E697461273A2558556D6D00417474CE
:204E00006573612054656D702E2558540243004C6976656C6C6F2064656C74610043616C4E
:204E2000636F6C2E206C6976656C6C616D656E746F00496D706F737461746F20503300492E
:204E40006D706F737461746F20503200496D706F737461746F205031005A2043616C696283
:204E60002E00536574205A3D300052697072697374696E6F206469206D6973757261004DD3
:204E80006F73747261206469206D6973757261004D6F6C742E20466C7573736F3A256F66B1
:204EA000252525004D6F6C742E2056656C6F63697461273A256F6D2525250020423A25656B
:204EC000622F25456202437E256F620045333A2565322F25453202437E256F320045323A49
:204EE0002565312F25453102437E256F310045313A2565302F25453002437E256F300020CB
:204F0000453A2565632F25456302437E256F430054616D706F6E653A256F4200436172692C
:204F200063616D656E746F2E2E2E00436172696361746120646120454550524F4D00436F69
:204F40006E6669677572617A696F6E650053616C7661746120696E20454550524F4D004352
:204F60006F6E6669677572617A696F6E650053746570706572204469736162696C697461B8
:204F8000746F0041626F727469746F0052697363616C642E2050696174746F0052697363D8
:204FA000616C642E204573747275736F726500417A696F6E653A256C610050494400426194
:204FC0006E6742616E6700592D4F66667365743A25587900582D4F66667365743A2558784C
:204FE00000504944204D61783A255844004472697665204D61783A25584D00447269766555
:20500000204D696E3A25586D0050494420443A2558640050494420493A25586900436F6E46
:2050200074726F6C6C6F2050574D3A25584D0054656D706F206D6F72746F3A2558700050EF
:20504000494420503A25587000436F6E74726F6C6C6F3A255868004176616E7A616D656EB0
:20506000746F206573706F6E3A255861004176616E7A616D656E746F206C696E3A25586CE6
:205080000054656D706F20537461622E3A25587700416363656C3A2558410056656C6F633C
:2050A00069746127204D61783A2558460056656C6F636974612720417676696F3A255866A8
:2050C0000050617373692F6D6D3A2553650042617564726174653A256F630047656E657266
:2050E000616C65005B6D696E5D20303D4F6666004469732E2041667465723A202569700022
:205100004D61782E20496E617474697669746127005B6D696E5D20303D4F66660044697313
:205120002E20646F706F3A20256973005374657070657220496E6174746976690056656EA0
:20514000746F6C6120616C206D617373696D6F0056656E746F6C6120616C252525005665A9
:205160006E746F6C6120616C2525250056656E746F6C6120616C20323525252500537065D1
:20518000676E696D656E746F2056656E746F6C610056656C2E2056656E746F6C613A2546C2
:2051A000732525250056656C6F636974612056656E746F6C61004D696E3A25737A204D619F
:2051C000783A25735A005A3A257832206D6D004D696E3A257379204D61783A257359005995
:2051E0003A257831206D6D004D696E3A257378204D61783A25735800583A257830206D6D76
:20520000004D696E3A25737A204D61783A25735A005A3A257832206D6D004D696E3A257359
:2052200079204D61783A25735900593A257831206D6D004D696E3A257378204D61783A2516
:20524000735800583A257830206D6D00312073636174746F203D2031206D6D00453A257887
:2052600033206D6D00004D61782066696E65632E3A25735A004D696E2066696E65632E3AAB
:2052800025737A005A3A257832206D6D00004D61782066696E65632E3A257359004D696ED7
:2052A0002066696E65632E3A25737900593A257831206D6D00004D61782066696E65632E7C
:2052C0003A257358004D696E2066696E65632E3A25737800583A257830206D6D00004D61DC
:2052E000782066696E65632E3A25735A004D696E2066696E65632E3A25737A005A3A2578C3
:2053000032206D6D00004D61782066696E65632E3A257359004D696E2066696E65632E3A0C
:2053200025737900593A257831206D6D00004D61782066696E65632E3A257358004D696E3A
:205340002066696E65632E3A25737800583A257830206D6D004F726967696E653A25665A6B
:20536000004F726967696E65205A3A25665A004F726967696E6520593A256659004F726939
:2053800067696E6520583A256658004D617373696D6F3A25667A004D617373696D6F205A6A
:2053A0003A25667A004D617373696D6F20593A256679004D617373696D6F20583A25667890
:2053C0000056656C6F63697461270043616E63656C6C612066696C65004361726963612039
:2053E00053636865646100536361726963612053636865646100436F6E74696E7561205393
:2054000074616D7061005061757361205374616D7061005374616D70612066696C65004192
:205420006E746920676F63636961004D6F76696D656E746F20646F706F3A254F610044694F
:205440007374616E7A61204D696E2E3A254F640047696F636F2062617272613A254F62000E
:2054600052697469726F203A254F7200254F32204F50532056656C6F636500254F31204F29
:20548000505320436C61737369636F00254F30204F5053205370656E746F0053696D756CBF
:2054A000617A696F6E653A256464004572726F7269203A25646500496E666F2020203A2539
:2054C00064690045636F2020203A25646F0043617269636120646120454550524F4D0053F3
:2054E000616C766120696E20454550524F4D00416363656C6572617A696F6E6500536361DD
:2055000074746F2D5A3A25614A0053636174746F3A25616A004D6F76696D656E746F3A25EE
:20552000615A004D6F76696D656E746F205A3A25615A004D6F76696D656E746F20593A25C8
:205540006159004D6F76696D656E746F20583A256158005374616D70613A25617A005374DC
:20556000616D7061205A3A25617A005374616D706120593A256179005374616D70612058E2
:205580003A25617800496D706F737461204F726967696E65002558322053656C657A696F5F
:2055A0006E6120457374722E2033002558312053656C657A696F6E6120457374722E203227
:2055C000002558302053656C657A696F6E6120457374722E2031004573747275736F72654B
:2055E0002033205370656E746F004573747275736F72652032205370656E746F00457374DC
:205600007275736F72652031205370656E746F0054656D702E2033203A2565322F25453208
:2056200002430054656D702E2032203A2565312F25453102430054656D702E2031203A2557
:2056400065302F25453002430054656D702E50696174746F3A254562024300506F73697A12
:20566000696F6E65204573747275736F726500506F732E205A2056656C6F636500506F7309
:20568000697A696F6E65205A00506F732E20592056656C6F636500506F73697A696F6E65EB
:2056A000205900506F732E20582056656C6F636500506F73697A696F6E65205800446973C3
:2056C0006162696C697461205374657070657200496D706F73746120636F6D65204F726906
:2056E00067696E65005261666672656464616D656E746F004C7563693A256C6F0050726577
:20570000736963616C64616D656E746F2041425300507265736963616C64616D656E746F84
:2057200020504C41004F726967696E65205A004F726967696E652059004F726967696E6512
:205740002058004F726967696E65205475747469004F726967696E652044656C74610053A0
:2057600076696C7570706F00536368656461205344004573747275736F726500506F7369B4
:205780007A696F6E6500436F6E6669677572617A696F6E6500256F6500496D706F7374614B
:2057A0007A696F6E692076656C6F636900496E64696574726F2001002A2A2A2A204552520E
:2057C0004F5245202A2A2A2A004E6F20536368656461205344005061757361005374616DB0
:2057E0007061005374616D70612E2E2E004E6F005369004E2F41004F6666004F6E006A6708
:205800006667636760675B6751674967406731672067176709670567F766EE66E566DC66A2
:20582000D266C766BD66B666AF66A8669A668C6680667766676657664C663D6632662366EC
:2058400018660966FA65E765D465C165AE659F65906581656F655D654B653B652D651F6563
:2058600011650565F764E964DB64CF64C164B364A464956485647564656455644564396467
:20588000276417640864F963EA63DB63D163C463B463A76399638D637F6376636C636263F8
:2058A0005863506345633A632F6326631D630C63FB62FA62F162E062CF62CE62C562B4623F
:2058C000A362A26299628862776276626D625C624B624A62416230621F621E62156206622E
:2058E000FD61ED61E461D461CB61BB61B261A261996189618061706169615B6150613F61B7
:205900002E611D6111610361F560E960DC60CE60C260B860AB609F60926087607B606D60D7
:205920005D604C60416037602B601A6010600660F85FEA5FDE5FD15FC45FBB5FB75FAC5F80
:205940009D5F8D5F825F765F685F5B5F4D5F445F375F2C5F1B5F0A5FF95EE85ED75EC55EE0
:20596000B45EA65E985E8E5E855E7C5E735E6A5E585E4C5E3C5E2B5E195E065EF65DEF5DDC
:20598000ED5DEC5DDD5DCB5DC25DAE5DA65D9D5D8D5D7B5D6B5D5A5D495D385D275D185D76
:2059A000085DF55CE05CD25CC85CB65CA95CA15C905C7E5C7D5C6F5C665C5F5C4E5C3E5C64
:2059C000335C275C1A5C125C015CF05BDA5BC25BB95BB55BA25B985B875B765B6A5B665B8A
:2059E000605B515B4D5B4C5B425B3C5B355B225B0F5BFC5AED5ADE5ACF5ABD5AAB5A995A39
:205A0000885A7C5A6F5A625A515A3F5A305A215A125A5A2D4F66667365743A2554326D6DE7
:205A200000592D4F66667365743A2554316D6D00582D4F66667365743A2554306D6D0053BF
:205A40006574207072696E74206F666673657473005A2D50726F62656E68EF68653A257A1C
:205A600068002544332033204B6F7069656E002544322032204B6F7069656E00254431201C
:205A800031204B6F70696500254430204B65696E65204B6F7069656E002558352057E16820
:205AA0006C6520457874722E2036002558342057E1686C6520457874722E20350025583396
:205AC0002057E1686C6520457874722E203400457874727564657220362041757300457841
:205AE0007472756465722035204175730045787472756465722034204175730054656D70EC
:205B00002E2036203A2565352F25453502430054656D702E2035203A2565342F25453402D5
:205B2000430054656D702E2034203A2565332F254533024300202542436D6D00052565634C
:205B40000200052565632F254563020000256F7300255566206D206765647275636B740066
:205B6000255566206D0025557400583A25783020593A257831004D756C3A20256F6D202021
:205B800020453A257834005A3A2578322020427566203A20256F4200422565422F2545627C
:205BA0000200052565632F25456302422565422F2545620200256F73005075663A20256FC8
:205BC00042004D756C3A20256F6D25252520FD202020453A202578346D00466C7573733AEA
:205BE000FD20256F6625252520205A3A257832000E202565622F254562B020593A25783136
:205C0000000A202565302F254530B020583A257830005370726163686500496E6469762EBA
:205C20003A2542436D6D00496E646976696475656C6C004B6C656265737469667400477267
:205C4000F56E6573205045542042616E6400426C61756573204B7265707062616E64004B0D
:205C60006170746F6E004275696C6454616B00556E62657363686963687465740000426502
:205C80007474626573636869636874756E673A0042657474626573636869636874756E6765
:205CA000005374616E64627900457874727564657273746175005A69656C74656D706572DE
:205CC000617475722E2E2E00576172746520617566006465722045787472756465722E0043
:205CE0004B6C69636B65207A756D2041756677E1726D656E0049676E6F7269657265204D7E
:205D00003130362025466900536572766F20506F732E3A20256F53004175746F6C657665E3
:205D20006C3A20256C6C00576569746572206D6974204B6C69636B004D656EF56B6E6F70EB
:205D4000662064726568656E005A756D206D616E2E2066EF726465726E0046696C616D65A3
:205D60006E747765636873656C3A0046696C616D656E747765636873656C005A2042616282
:205D800079736368722E3A256F596D6D00447275636B2061626272656368656E004C616EDD
:205DA00067732E424200546F747A65697400415458204E65747A7465696C20616E2F617514
:205DC00073006765647275636B740046696C616D656E74206765647275636B74004765732F
:205DE0002E20447275636B7A65697400003A0020546167652000447275636B6572206265EE
:205E0000726569742E005344204B617274652065696E67656C656774005344204B617274D5
:205E20006520656E746665726E740052F5636B7A2E20756D3A255855206D6D005761727414
:205E40006574656D702E2558540243004C6576656C2064656C7461004265726563686E65A5
:205E6000204C6576656C696E67005365747A65205033005365747A65205032005365747ACB
:205E800065205031005A204B616C69622E005365747A65205A3D30005265736574204D65AA
:205EA0007373756E67005A65696765204D657373756E6700466C6F77204D756C2E3A256FDA
:205EC00066252525004765736368772E4D756C3A256F6D2525250020423A2565622F254565
:205EE0006202437E256F620045333A2565322F25453202437E256F320045323A2565312F2A
:205F000025453102437E256F310045313A2565302F25453002437E256F300020453A25657B
:205F2000632F25456302437E256F43005075666665723A256F4200486F63686C6164656E6A
:205F40002E2E2E0067656C6164656E2E004B6F6E66696775726174696F6E00676573706545
:205F60006963686572742E004B6F6E66696775726174696F6E004D6F746F72656E2041755A
:205F80007300416E676568616C74656E004865697A6520447275636B6265747400486569C4
:205FA0007A6520457874727564657200416B74696F6E3A256C61005049440042616E674266
:205FC000616E6700592D4F66667365743A25587900582D4F66667365743A255878005049BA
:205FE00044204D61783A255844004472697665204D61783A25584D004472697665204D6908
:206000006E3A25586D0050494420443A2558640050494420493A25586900436F6E74726FB7
:206020006C6C2D50574D3A25584D00546F747A6569743A2558700050494420503A255870D5
:20604000005265676C65723A25586800416476616E636520717561643A2558610041647610
:20606000616E6365206C696E3A25586C00537461622E5A6569743A2558770042657363689C
:206080006C2E3A255841004D61782046523A2558460053746172742046523A25586600535D
:2060A0006368722F4D4D3A2553650042617564726174653A256F6300416C6C67656D65694A
:2060C0006E005B6D696E5D20303D41757300417573206E6163683A20256970004D61782E11
:2060E00020496E616B746976005B6D696E5D20303D41757300417573206E6163683A202596
:206100006973004D6F746F7220496E616B746976004CF56674657220566F6C6C004CF56646
:2061200074657220617566203735252525004CF56674657220617566203530252525004C2F
:20614000F56674657220617566203235252525004CF56674657220417573004CF56674658C
:20616000723A254673252525004CF566746572004D696E3A25737A204D61783A25735A0052
:206180005A3A257832206D6D004D696E3A257379204D61783A25735900593A257831206DD4
:2061A0006D004D696E3A257378204D61783A25735800583A257830206D6D004D696E3A25B8
:2061C000737A204D61783A25735A005A3A257832206D6D004D696E3A257379204D61783A14
:2061E00025735900593A257831206D6D004D696E3A257378204D61783A25735800583A25BE
:206200007830206D6D0031206B6C69636B203D2031206D6D00453A257833206D6D00004D3F
:20622000617820456E6473746F70703A25735A004D696E20456E6473746F70703A25737A0F
:20624000005A3A257832206D6D00004D617820456E6473746F70703A257359004D696E20DF
:20626000456E6473746F70703A25737900593A257831206D6D00004D617820456E647374E7
:206280006F70703A257358004D696E20456E6473746F70703A25737800583A257830206DBE
:2062A0006D00004D617820456E6473746F70703A25735A004D696E20456E6473746F707021
:2062C0003A25737A005A3A257832206D6D00004D617820456E6473746F70703A2573590057
:2062E0004D696E20456E6473746F70703A25737900593A257831206D6D00004D61782045DC
:206300006E6473746F70703A257358004D696E20456E6473746F70703A25737800583A25B9
:206320007830206D6D00486F6D653A25665A00486F6D65205A3A25665A00486F6D652059EF
:206340003A25665900486F6D6520583A256658004D61783A25667A004D6178205A3A256637
:206360007A004D617820593A256679004D617820583A256678004665656472617465004487
:2063800061746569206CEF736368656E004D6F756E74204B6172746500556E6D6F756E74AE
:2063A000204B6172746500447275636B20466F7274732E00447275636B20506175736965F1
:2063C00072656E00447275636B6520446174656900416E7469204F6F7A65005374617274BC
:2063E000206E6163683A254F61004D696E2E416273742E203A254F64004261636B736C2E1A
:206400002020203A254F620045696E66616872656E203A254F7200254F32204F5053205311
:2064200063686E656C6C00254F31204F5053204B6C6173736973636800254F30204F5053B4
:20644000204175730054726F636B656E6C6175663A256464004665686C6572202020202058
:206460003A25646500496E666F202020202020203A256469004563686F20202020202020FD
:206480003A25646F004C61646520766F6D20454550524F4D0053696368657265204545503D
:2064A000524F4D0042657363686C65756E6967756E67005A2D5275636B2020203A25614AB5
:2064C000005275636B20202020203A25616A004265776567656E3A25615A0042657765679C
:2064E000656E205A3A25615A004265776567656E20593A256159004265776567656E2058B1
:206500003A25615800447275636B656E3A25617A00447275636B656E205A3A25617A004499
:206520007275636B656E20593A25617900447275636B656E20583A256178005365747A659A
:20654000204E756C6C70756E6B74002558322057E1686C6520457874722E2033002558311C
:206560002057E1686C6520457874722E2032002558302057E1686C6520457874722E2031C7
:206580000045787472756465722033204175730045787472756465722032204175730045D9
:2065A000787472756465722031204175730054656D702E2033203A2565322F2545320243F6
:2065C0000054656D702E2032203A2565312F25453102430054656D702E2031203A25653058
:2065E0002F2545300243004265642054656D703A2565622F254562024300457874722E2075
:20660000506F736974696F6E005A20506F732E205363686E656C6C005A20506F7369746970
:206620006F6E005920506F732E205363686E656C6C005920506F736974696F6E0058205025
:206640006F732E205363686E656C6C005820506F736974696F6E004D6F746F72656E20412F
:2066600075737363682E005365747A65204E756C6C70756E6B740041626BF5686C656E0024
:206680004C616D70656E3A20256C6F00566F726865697A656E2041425300566F7268656926
:2066A0007A656E20504C4100486F6D65205A00486F6D65205900486F6D65205800486F6D66
:2066C0006520416C6C6500486F6D652044656C746100446562756767696E67005344204B96
:2066E0006172746500457874727564657200506F736974696F6E004B6F6E666967757261A0
:2067000074696F6E00256F65005363686E656C6C65696E73742E005A7572F5636B20010087
:206720002A2A2A2A204645484C4552202A2A2A2A004B65696E65205344204B617274650059
:206740004C6565726C61756600447275636B656E00447275636B652E2E2E004E65696E00CB
:206760004A61006E760041757300416E007D767976757671766E76627659765476497639B1
:2067800076327623761F7611760876FF75F775ED75E275D975D275CB75C475B875AC75A112
:2067A0007598758A757A756F75637558754C7541753575267513750075ED74DA74C974B883
:2067C00074A774947481746E74637457744B743F74357429741D7411740874FC73F073E3AA
:2067E00073D373C473B873AC73A0739473887378736B735C734D733E732F7325731A730E6C
:2068000073FF72F272E772DB72D272C872BE72B472AC72A17296728B72827279726972596D
:206820007258724F723F722F722E722572157205720472FB71EB71DB71DA71D171C171B1DA
:2068400071B071A7719771877186717D716E71657155714C713C71337123711A710A710185
:2068600071F170E870D870CE70BD70B070A270947086707970687058704C703E702E70225C
:20688000701A700D700070F36FE86FDE6FD06FC06FAF6FA36F996F8C6F7C6F726F686F5A6D
:2068A0006F4C6F406F336F266F1D6F196F0E6FFD6EF16EEA6ED96ECB6EBA6EAC6E9B6E8EBC
:2068C0006E836E726E616E506E3F6E2E6E1C6E0A6EFF6DF36DEB6DE26DDB6DD46DCD6DBAB1
:2068E0006DAE6D9D6D8B6D7B6D6A6D5B6D546D526D516D436D326D2A6D196D0F6D066DFBF3
:206900006CE96CD96CC96CBA6CA96C996C8A6C7A6C666C566C4B6C3B6C2A6C1D6C156C0985
:206920006CF66BF56BEA6BE16BDA6BCA6BBB6BB06BA96B9C6B936B826B716B5B6B436B3A3E
